:020000040000FA
:10000000E8090020D1000000DD000000DF00000052
:10001000E1000000E3000000E50000000000000037
:10002000000000000000000000000000E7000000E9
:100030000000000000000000EB00000005080000C8
:10004000EF000000EF0000007D030020BD00002055
:10005000310100207D0100200702002099030020CB
:10006000E90300200F04002035040020EF00000009
:10007000EF000000A1040020EF000000EF000000EE
:10008000EF000000F9020020EF000000EF00000088
:10009000EF000000EF0000003D0700003108000005
:1000A0005D080000A10800000D0900007102002099
:1000B0001D0300204D030020EF000000DFF80CD0EE
:1000C00000F0F8FA00480047FD190000E809002098
:1000D0000B4880470B4880470B480047FEE7FEE788
:1000E000FEE7FEE7FEE7FEE7FEE7FEE7FEE7FEE7E8
:1000F00002B40121401A0028FCD102BC7047000064
:10010000051D000011080000BD0000002DE9FE4F94
:1001100081EA030404F0004421F0004100944FF010
:10012000000B23F0004350EA01045ED052EA0304BE
:100130005BD0C3F30A54C1F30A552C44A4F2F33440
:100140000194A0FB0254C1F3130141F48011C3F3E5
:10015000130343F4801301FB024400FB034E840AA3
:10016000970A44EA815447EA8357A4FB076802953B
:100170008D0A05FB07854FEA932C04FB0C542705D9
:10018000029D4FEA065847EA1637B5EB08056EEBB5
:10019000070C870E920E47EA811742EA8312A7FBEB
:1001A0000201B6EB0B0164EB00042B0D43EA0C33A8
:1001B0005E1844EB1C50DA465146E7FB0201C5F3DA
:1001C00013044FEA0B3343EA14534FEA0432019C01
:1001D00043EA0603A4F10C040294009CCDE900B4A8
:1001E00000F0D3F803B0BDE8F08F00200146F9E736
:1001F0000EB5C10F80EAE0700844CA07002140F242
:1002000033438DE80E000A460B4600F0BEF803B0FB
:1002100000BD00F0004230F000400AD0C10D01F5F1
:100220006071C0F3160042EA0151C2084007114351
:10023000704700200146704701F0004330B421F0C0
:10024000004150EA010206D00A0DA2F56072C1F326
:100250001301002A02DC30BC00207047440F44EA3E
:10026000C104C100E01830BC00EBC25000F047B838
:1002700030B50B46014600202022012409E021FA76
:1002800002F59D4205D303FA02F5491B04FA02F573
:100290002844151EA2F10102F1DC30BD2DE9F05F0A
:1002A0000546002092469B468846064681464024E5
:1002B0001BE0284641464746224600F01CFA5346BA
:1002C0005A46C01A914110D311461846224600F0F2
:1002D00003FA2D1A67EB01084F4622460120002140
:1002E00000F0FAF917EB00094E41201EA4F10104B9
:1002F000DFDC484631462A464346BDE8F09F0029E8
:10030000A8BF7047401C490008BF20F0010070479B
:1003100010B4B0FA80FC00FA0CF050EA010404BFFB
:1003200010BC704749B1CCF1200421FA04F411FA51
:100330000CF118BF012121430843A3EB0C01CB1D95
:100340004FEA00614FEA102042BF002010BC704706
:1003500000EBC35010440029A4BF10BC7047401CE0
:10036000490008BF20F0010010BC704710B5141EF2
:1003700073F1000408DA401C41F1000192185B415E
:100380001A4301D120F0010010BD2DE9F04D924635
:100390009B4611B1B1FA81F202E0B0FA80F220324C
:1003A000904600F099F904460F4640EA0A0041EAF7
:1003B0000B0153465A46084313D0114653EA010035
:1003C00019D0C8F14002504600F095F905460E4696
:1003D00050465946424600F07FF9084305D00120B7
:1003E00004E020463946BDE8F08D0020054346EA8A
:1003F000E0762C4337430A986305E40AA0EB080033
:100400000022FD0A44EA47540A3002D50020014682
:10041000E9E7010510196941DDE90845001969415D
:10042000BDE8F04DA2E72DE9FE4F804681EA0300CA
:10043000C00F0C46009021F0004123F00045B8EBBE
:100440000200A94105D24046214690461C460B4673
:10045000024623F00040104347D0270DC7F30A009F
:10046000C3F30A510290401A019040286BDAC3F39B
:10047000130040F4801B0098924620B10023D2EB79
:10048000030A63EB0B0B01985946C0F1400250463A
:1004900000F022F906460D4650465946019A00F0F2
:1004A0003AF910EB08006141002487EA115284EA0E
:1004B000E7731A4340D0009A62B3019A012A4FEAC7
:1004C000075215DC001B61EB02014FF0004202EA0B
:1004D0000752CDE90042001C41F5801132462B46FF
:1004E000FFF753FF03B0BDE8F08F40462146F9E720
:1004F000001B61EB0201001C41F5801300185B41F9
:100500002018A2F5001747EB030140EAD570B61991
:100510006D4111E06D084FEA360645EAC0754FEAB5
:100520000752001B61EB0201001C41F580114908D4
:100530004FEA30000019514132462B4603B0BDE866
:10054000F04FFFF713BF0098012240000023D0EBCB
:10055000020263EBE073009821464FEAE074B8EBC7
:10056000000061EB0401E9E783F000435BE781F001
:10057000004158E72DE9F04D81EA030404F0004BF7
:1005800021F0004514464FF0000A23F0004150EAE4
:10059000050220D054EA01021DD0C5F30A570246D5
:1005A000C5F31303C1F31300C1F30A5640F48015D9
:1005B00043F48013A7EB0608101BD64608F2FD385B
:1005C00073EB050002D308F1010801E092185B41CA
:1005D000B8F1000F03DA00200146BDE8F08D0020DD
:1005E0004FF48011064684460EE0171B73EB050797
:1005F00005D3121B63EB050306434CEA010C4908C3
:100600004FEA300092185B4150EA0107EDD152EAFF
:10061000030012D082EA040083EA0501084305D0F2
:10062000101BAB4106D20122002306E000224FF04E
:10063000004302E06FF0010253101AEB06004CEB8E
:10064000085110EB0A0041EB0B01BDE8F04DFFF73C
:100650008DBEC1F30A52C1F3130140F2FF3341F4DE
:1006600080119A4202DA00200146704740F233437B
:100670009A42A2F2334202DC524200F03CB800F04F
:100680002BB8000030B5041E71F1000404DB4FF0FC
:100690000044404264EB0101141E73F1000405DBC9
:1006A0001C464FF00043524263EB0403994208BFDB
:1006B000904230BD064C074D06E0E06840F0010373
:1006C00094E8070098471034AC42F6D3FFF7FAFCE1
:1006D0005420000084200000202A04DB203A00FA85
:1006E00002F1002070479140C2F1200320FA03F389
:1006F000194390407047202A04DB203A21FA02F087
:100700000021704721FA02F3D040C2F1200291404B
:10071000084319467047202A06DBCB17203A41FAD6
:1007200002F043EAE07306E041FA02F3D040C2F17E
:100730002002914008431946704700002E48816806
:10074000C9B211F0070F52D1C9100C390D294ED280
:10075000DFE801F0074D4D4D264D4D4D190B4D3C39
:100760004B00264901224A702EE0244A0121D17013
:100770001178234B0B44491C11701A78C16862F33D
:100780000701C16033E01D494A78012A02D10022E5
:100790004A708A70CA78012A04BF0022CA7026E013
:1007A00016494A78012A22D18A78012A09D0C368D9
:1007B0000A78DFF84CC09444521C0A708CF8003060
:1007C00015E0C2680A7000228A7010E00B49CA78EE
:1007D000012A0CD10A780A4B1344521C0A701A7869
:1007E000C16862F30701C16001E00449C97841684A
:1007F00041F0080141607047000001403D050020C4
:100800008405002001490120486070474805002008
:100810000549044808600548016841F47001016019
:10082000704700000024F4002405002088ED00E05B
:1008300009480169C1F34201012906D0022903D008
:10084000032902D0062900D100684FF0E0214FF4BF
:100850000000C1F880027047000002400D4908699D
:10086000C0F34202012A0DD00B480C4B022A03D0E0
:10087000032A07D0062A05D1096802681344521CCE
:10088000026019704FF0E0214FF08070C1F88002D3
:10089000704700000000034044050020840600204B
:1008A00030B4174C2069C0F3420101291FD015480C
:1008B000154B022908BF002104D0032917D00629AF
:1008C0000FD014E02268D0F800C003EB0C050CF147
:1008D000010CC0F800C02A70491CC9B20E29F1D31E
:1008E00005E0216802681344521C026019704FF041
:1008F000E0214FF00070C1F8800230BC704700006A
:1009000000000440440500208406002009480169D5
:10091000C1F34201012906D0022903D0032902D0E4
:10092000062900D100684FF0E0214FF08060C1F847
:1009300080027047000005400FB4054B10B503A9B5
:10094000044A029800F0DAF810BC5DF814FB0000CD
:10095000851900005005002002E008C8121F08C1D8
:10096000002AFAD170477047002001E001C1121F30
:10097000002AFBD1704700002DE9FF5F82B0002103
:10098000DDE90430020DDDF840B0034318D044F631
:100990001050A2F2FF3242431514119801281FD0C3
:1009A000A5EB0B00401C5FEA000A4FF000064E4F1B
:1009B000DFF83891B046504615D5CAF1000413E06F
:1009C000119801244AA3012801D16FEA0B01029872
:1009D000119AC0E90031C0E9024206B0BDE8F09FBB
:1009E000CBF10000DFE704460021404A491842EB02
:1009F0000450CDE9001012E0E00707D032463B4634
:100A000040464946FFF782FB8046894632463B46D0
:100A100010461946FFF77AFB06460F466410002C75
:100A2000EAD1DDE90401DDE90023BAF1000F06DABD
:100A3000FFF76CFB42464B46FFF768FB05E0FFF70C
:100A400099FD42464B46FFF795FD04460E460022AF
:100A5000284BFFF717FE03D84FF0FF30014607E0A1
:100A60000022254B20463146FFF7DDFCFFF7F1FD64
:100A7000102409E0002C0ADB0A220023FFF70EFCF9
:100A8000039B30321A55641E50EA0102F2D1641CF5
:100A9000039AC4F111031444119A012A03D00122CC
:100AA00008430DD10AE0084304D000204FF0110B99
:100AB000119072E7A3EB0B056D1E0DE05B4504DDA5
:100AC0004FF0000205F1010504E003DA4FF00002E7
:100AD000A5F10105002AECD002981199C0E9023174
:100AE000C0E9004579E70000000014400000F03F35
:100AF000300000000000F0430000E03F2DE9FF4F10
:100B000095B09B468946064600250FE2252877D1F9
:100B100000242746F84A0121059400E0044316F812
:100B2000013F203B01FA03F01042F7D130782A2828
:100B300011D06FF02F033078A0F13002092A16D8B7
:100B4000059A44F0020402EB820203EB42021044D5
:100B5000761C0590EFE759F8042B0592002A03DA7A
:100B6000504244F40054059044F00204761C30785E
:100B70002E2816D116F8010F44F004042A280DD0AF
:100B80006FF02F023078A0F13003092B09D807EB62
:100B9000870302EB4303C718761CF3E759F8047B7D
:100BA000761C30786C280FD006DC4C2817D06828CB
:100BB0000DD06A2814D104E0742810D07A280FD1FF
:100BC0000DE044F400140AE044F4801401E044F41D
:100BD00040147278824202D104F58014761C761C8F
:100BE000307866280BD013DC582877D009DC002831
:100BF00075D04528F6D04628F4D047281AD19DE173
:100C000018E0632835D0642879D0652812D195E1A1
:100C1000702873D008DC6728F1D069286FD06E285F
:100C20000DD06F2806D1B5E073282CD0752875D06B
:100C3000782874D05A46179990476D1C75E1C4F313
:100C40000250022809D003280DD0D9F8001004283A
:100C50000DD00D6009F1040967E1D9F80010EA1719
:100C6000C1E90052F6E7D9F800100D80F2E70D70E7
:100C7000F0E719F8041B8DF8001000208DF8010032
:100C8000EA46012003E059F804AB4FF0FF3061075A
:100C90004FF0000102D40DE008F101018846B9428D
:100CA0000FDA8045F8DB1AF808100029F4D108E0C3
:100CB00008F1010188468142FADB1AF80810002980
:100CC000F6D105985B46A0EB080721463846179AEF
:100CD00000F094FA284400EB080507E04DE029E114
:100CE0000DE01AF8010B5A4617999047B8F1010820
:100CF000F7D25B4621463846179A13E142E00A22B2
:100D00000092C4F302524FF0000A022A08D059F8A8
:100D100004CB032A4FEAEC710AD00DE029E02AE067
:100D200009F1070121F00702F2E802C1914609E04A
:100D30000FFA8CFC4FEAEC71042A03D14FFA8CFCB9
:100D40004FEAEC71002907DA0A460021DCF1000CB9
:100D500061EB02012D2202E0220504D52B228DF841
:100D60000420012203E0E20701D02022F7E79046A9
:100D700059E00A2102E010220DE010214FF0000A94
:100D800000910BE010224FF0000A44F00404082701
:100D9000009203E008224FF0000A0092C4F30252CE
:100DA000022A05D059F804CB0021032A08D009E013
:100DB00009F1070121F00702F2E802C1914605E0BE
:100DC0001FFA8CFC042A01D10CF0FF0C4FF0000834
:100DD000220728D5702806D0009B83F0100353EA21
:100DE0000A0305D00EE040228DF80420012208E01D
:100DF0005CEA010206D030228DF804208DF805004F
:100E000002229046009B83F0080353EA0A030AD1AA
:100E10005CEA010201D1620705D530228DF8042079
:100E20004FF001087F1E582804D034A003900EA86C
:100E300002900DE036A0F9E753466046009AFFF7AE
:100E40002DFA84460398825C0298401E029002703C
:100E50005CEA0100F0D1029806A9081A00F1200A04
:100E6000600702D524F4803400E00127574502DDF5
:100E7000A7EB0A0000E0002000EB0A0100900598B3
:100E80004144401A0590E00306D45B462146179A78
:100E9000059800F0B3F90544002706E001A85A467A
:100EA000C05D179990476D1C7F1C4745F6DBE0033A
:100EB0000CD55B462146179A059800F09FF905442A
:100EC00004E030205A46179990476D1C0099481E3F
:100ED00000900029F5DC08E0029802995A46007853
:100EE000491C0291179990476D1CBAF10001AAF1B3
:100EF000010AF1DC65E100000928010030313233DC
:100F00003435363738396162636465660000000045
:100F1000303132333435363738394142434445462F
:100F20000000000000F058F90544761C30780028D5
:100F30007FF4ECAD19B02846BDE8F08F620700D40D
:100F4000062709F1070222F0070CFCE80223E1461C
:100F500003F000485FEA080C02D00FF2702C0DE09D
:100F60005FEA045C02D50FF2682C07E05FEAC47CFC
:100F700002D00FF2602C01E0AFF2700C4FF0FF389E
:100F800023F00043CDF850C065280CD006DC45287E
:100F900009D046281DD047283DD13DE0662818D00D
:100FA00067287ED138E00021112F01DB112000E0FD
:100FB000781CCDE9000106A90EA8FFF7DDFCDDE9EC
:100FC0000F010E9A03910021009207F1010A04918A
:100FD0004DE04FF000400097CDE9011006A90EA8A2
:100FE000FFF7CAFCDDE90F0203920E9B1199002264
:100FF000DDF80CA00093049211B9791C00EB010AF2
:10100000B7EB0A0004D4C0F1FF3007F1010A0490E5
:10101000AAEB0700019044E0012F00DA012700212C
:10102000112F01DD112000E03846CDE9000106A9AD
:101030000EA8FFF7A1FCDDE90F010E9A0391002134
:1010400004910092BA4621070CD40399514500DA65
:101050008A46BAF1010F05DD009AAAF10101515C3F
:10106000302908D0B84202DA10F1040F06DA012163
:10107000CDE9011015E0AAF10101E9E7002805DC3E
:10108000049901440491AAEB000102E0411C51457E
:1010900000DD8A460499401A401C01904FF0004040
:1010A0000290200704D40198504501DBCDF804805C
:1010B00000208DF84F0002980DF14F07B0F1004F5E
:1010C00025D02B200E9002984FF0020800280CDA51
:1010D000404202902D200E9007E00A210298FFF76F
:1010E000C7F83031029007F8011DB8F10001A8F1EE
:1010F0000108F2DC02980028EFD1791E0E980870E2
:10110000307800F0200040F0450007F8020D12A8EA
:10111000C01B00F107081498007800B1012000EB13
:101120000A01019801EBE07105984144401A401E04
:101130000590E00306D45B462146179A059800F017
:101140005DF805441498007818B15A4617999047ED
:101150006D1CE00324D55B462146179A059800F0E4
:101160004DF805441CE00498002807DBDDE9030185
:10117000884203DD0098405C179901E01799302000
:101180005A469047049805F10105401C04900198C7
:10119000401E019004D12E205A46179990476D1C8D
:1011A000BAF10001AAF1010ADDDC05E017F8010B34
:1011B0005A46179990476D1CB8F10001A8F1010833
:1011C000F4DC5B462146179A0598ABE62D0000003B
:1011D0002B000000200000002DE9F041044600250E
:1011E0001E461746880404D405E039462020B0473F
:1011F0006D1C641EF9D52846BDE8F0812DE9F0414B
:10120000044600251E469046C80301D5302700E05D
:101210002027880404D505E041463846B0476D1CB8
:10122000641EF9D52846BDE8F081000072B600F0D2
:101230008DFD4FF4E131022000F0E6FD00F0AEFB41
:101240000021012000F03CFD00F03EFB00F008FB17
:1012500000F006FA094C204600F084FB00F044FA46
:1012600000F016F900F074F800F0C2F800F0ACF9E4
:1012700000F05EF900F01CF8EDE7000020A1070087
:1012800010B54FF08044A26822F07002A2600146BF
:101290002F2000F0FBFCA06840F40060A060A06874
:1012A00010F0800FFBD1E068C0F30B0010BD000010
:1012B00010B54FF08044A06820F07000A0600C21B1
:1012C0002F2000F0E3FCA06840F40060A060A0685C
:1012D00010F0800FFBD1E06840F26621C0F3890076
:1012E000884209DBA0F26620401000F11901BDE838
:1012F00010400AA0FFF720BB081A4010192806DB8F
:10130000A0F11901BDE810400AA0FFF715BBC0F11C
:101310001901BDE8104001A0FFF70EBB74656D70A8
:10132000657261747572653A2533644320200D0A35
:101330000000000074656D70657261747572653AC5
:101340002D2533644320200D0A000000000000001A
:1013500010B54FF080442DED028BA06820F0700096
:10136000A0600D212F2000F091FC4821102000F0FA
:101370008DFCA068B0EE040A40F40060A060A06894
:1013800010F0800FFBD1E068C0F30B0410EE100AE0
:10139000FEF73FFF41EC180B2046FEF729FF9FEDBB
:1013A0000C1B53EC112BFEF7B1FE53EC182BFEF780
:1013B000ADFEFEF741FFFEF72CFFBDEC028B41ECCA
:1013C000100BBDE8104053EC102B03A0FFF7B4BA8C
:1013D000000000000000443F5643433333203D20CB
:1013E00025302E326656200A000000000000000062
:1013F00010B54FF080442DED028BA06820F07000F6
:10140000A0600D212F2000F041FC5021102000F0A1
:101410003DFCA068B0EE040A40F40060A060A06843
:1014200010F0800FFBD1E068C0F30B0410EE100A3F
:10143000FEF7EFFE41EC180B2046FEF7D9FE9FEDBC
:101440000C1B53EC112BFEF761FE53EC182BFEF72F
:101450005DFEFEF7F1FEFEF7DCFEBDEC028B41EC1B
:10146000100BBDE8104053EC102B03A0FFF764BA3B
:10147000000000000000443F564343494F203D20F8
:1014800025302E326656200A0000000000000000C1
:1014900010B54FF080442DED028BA06820F0700055
:1014A000A0600D212F2000F0F1FB4021102000F062
:1014B000EDFBA068B7EE000A40F40060A060A068F1
:1014C00010F0800FFBD1E068C0F30B0410EE100A9F
:1014D000FEF79FFE41EC180B2046FEF789FE9FEDBC
:1014E0000C1B53EC112BFEF711FE53EC182BFEF7DF
:1014F0000DFEFEF7A1FEFEF78CFEBDEC028B41EC6B
:10150000100BBDE8104053EC102B03A0FFF714BAEA
:10151000000000000000443F56434F5245203D204C
:1015200025302E326656200A000000000000000020
:1015300010B54FF080442DED028BA06820F07000B4
:10154000A0600D212F2000F0A1FB6821102000F0E9
:101550009DFBA068B2EE040A40F40060A060A068A1
:1015600010F0800FFBD1E068C0F30B0410EE100AFE
:10157000FEF74FFE41EC180B2046FEF739FE9FEDBB
:101580000C1B53EC112BFEF7C1FD53EC182BFEF78F
:10159000BDFDFEF751FEFEF73CFEBDEC028B41ECBB
:1015A000100BBDE8104053EC102B03A0FFF7C4B99B
:1015B000000000000000443F5650203D2025302E02
:1015C000326656200A00000010B54FF080442DED21
:1015D000028BA06820F07000A0600D212F2000F089
:1015E00055FB5821102000F051FBA068B0EE040A12
:1015F00040F40060A060A06810F0800FFBD1E068AC
:10160000C0F30B0410EE100AFEF703FE41EC180BBA
:101610002046FEF7EDFD9FED0C1B53EC112BFEF762
:1016200075FD53EC182BFEF771FDFEF705FEFEF776
:10163000F0FDBDEC028B41EC100BBDE8104053EC0B
:10164000102B03A0FFF778B9000000000000443F12
:1016500056535953203D2025302E326656200A001D
:1016600010B500F0DFF9012000F0F8F900220721A1
:10167000104600F0C6F94FF08040816821F4005117
:101680008160816821F480418160816841F400615A
:101690008160816841F48051816011490A6822F4B7
:1016A00040720A600F4A136823F4E02313600B684A
:1016B00023F440630B60136823F4E00313600B68AA
:1016C00023F440530B60116821F0E06111608168E0
:1016D00041F480518160816841F40061816010BDF6
:1016E00000280D4020040D4010B50020FFF7C8FD74
:1016F00081B234A0FFF720F90120FFF7C1FD81B2CC
:1017000034A0FFF719F90220FFF7BAFD81B235A026
:10171000FFF712F90820FFF7B3FD81B235A0FFF7FC
:101720000BF90920FFF7ACFD81B235A0FFF704F9F2
:101730000A20FFF7A5FD81B234A0FFF7FDF80B20CA
:10174000FFF79EFD81B234A0FFF7F6F804200407EE
:10175000A16860F30611A160A06840F40060A06079
:10176000A06810F0800FFBD1E068C0F30B012DA042
:10177000FFF7E2F8A168052060F30611A160A068F8
:1017800040F40060A060A06810F0800FFBD1E0681A
:10179000C0F30B0128A0FFF7CFF8A168062060F383
:1017A0000611A160A06840F40060A060A06810F07D
:1017B000800FFBD1E068BDE81040C0F30B0123A00F
:1017C000FFF7BAB841494F3130203D202534640A33
:1017D0000000000041494F3332203D202534640A87
:1017E0000000000041494F3534203D202534640A73
:1017F0000000000041494F36203D202534640A0096
:1018000041494F37203D202534640A0041494F3873
:10181000203D202534640A0041494F39203D2025D0
:1018200034640A0041444334202850463429203D82
:10183000202534640A0000004144433520285046E6
:101840003529203D202534640A00000041444336F8
:10185000202850463629203D202534640A00000007
:1018600010B54921202000F011FA0921212000F0B3
:101870000DFA4921222000F009FA0921232000F065
:1018800005FA4921242000F001FA0921252000F061
:10189000FDF94821262000F0F9F94821272000F021
:1018A000F5F94821282000F0F1F94821292000F01D
:1018B000EDF90121382000F0E9F91F21BDE81040C1
:1018C0002E2000F0E3B9000010B5112000F0CCF993
:1018D00018B1FF21112000F0D9F90021302000F0CB
:1018E000D5F90021084600F0D1F900212A2000F0A6
:1018F000CDF900212E2000F0C9F90021612000F06F
:10190000C5F90021382000F0C1F94021102000F075
:10191000BDF9102000F0A8F9114C20708021122090
:1019200000F0B4F9122000F09FF92070102114206B
:1019300000F0ACF9FF21132000F0A8F9C021152018
:1019400000F0A4F9FF21312000F0A0F901210020CE
:1019500000F09CF90121672000F098F9207810BD73
:101960002C0500200022002808BF7047521C00BF31
:1019700000BF022100BF491C1429FBD38242F5D1CC
:101980007047000004494A6860F307024A600A6A27
:1019900012F0400FFBD0704700000440154801686A
:1019A00021F00301491C0160011D0A6822F00102B7
:1019B0000A60114A136843F001031360131FD3F840
:1019C00000C04CF0010CC3F800C0D0F800C02CF0EF
:1019D0000C0C0CF1040CC0F800C0086820F00200E8
:1019E0000860106840F002001060186840F00200C3
:1019F0001860704700240D4034240D40FFF716FC9A
:101A0000FEE74FF08043D3F808C060F3092CC3F819
:101A100008C0986861F303009860986862F38A20B0
:101A2000986070470B48016821F070011031016027
:101A3000016821F4E06101F58071016006480168E8
:101A400021F00C01091D0160016821F03001103105
:101A5000016070470C040D4000140D4010F0010FA0
:101A600009D02E490A6822F0E0420A602C490A682F
:101A700022F440420A602B4A2B4910F0020F07D093
:101A8000136823F4E04313600B6823F0C0030B607A
:101A900010F0040F07D0136823F4E06313600B68A1
:101AA00023F030030B6010F0080F07D0136823F009
:101AB000700313600A6822F00C020A601B491C4A7A
:101AC00010F0100F07D00B6823F4E0230B601368AD
:101AD00023F44073136010F0200F07D00B6823F439
:101AE000E0030B60136823F44063136010F0400FB1
:101AF00007D00B6823F0E0630B60136823F44053B6
:101B0000136010F0800F08BF7047086820F0E040B5
:101B10000860106820F440401060704724040D40B5
:101B2000002C0D4018040D4000200D4020040D40F5
:101B300000280D40274A136823F080531360264A7B
:101B4000D36823F47F4303F50073D360D36823F095
:101B5000FF039B1CD360136823F0600313601368BA
:101B600023F480631360136823F400531360136835
:101B700023F480531360136823F480731360136895
:101B800023F080031360136823F01F030F331360E7
:101B9000136843F400731360936A23F003039362A2
:101BA000936A23F004039362936A23F00803936219
:101BB000936A43F01003936231B14FF0E021930137
:101BC000C1F880328431CB67116860F3CB2111609A
:101BD0007047000000040D400000024010480168FA
:101BE0006FF31B310160016841F4883141F0887165
:101BF00001600C48016821F0C001403101600168BA
:101C000021F4405101F580510160016821F44071D7
:101C100001F580710160016841F440610160704725
:101C20000C040D4000140D400E4BD3F800C02CF0F6
:101C3000010CC3F800C0D3F800C061F3152CC3F841
:101C400000C0196862F383011960196860F3071115
:101C50001960186840F001001860186810F0807F63
:101C6000FBD0704704040D40410207488268816040
:101C7000416811F0020FFBD0416811F0040FFBD056
:101C80008068C0B270470000000002400B4A81B07B
:101C9000536813F0020FFBD041EA4020916840F4F2
:101CA00080709060506810F0020FFBD0506810F008
:101CB000040FFBD09068009001B070470000024014
:101CC00010B5FFF737FFBDE81040FFF787BF30B40E
:101CD0008569DDE9024C61F301058561816962F383
:101CE00082018161816963F3C3018161816964F368
:101CF0000511816181696CF38611816130BC704787
:101D00008160704738B50E4C0120216841F0080110
:101D10002160002100910B490A6812F0080F18BFDA
:101D20000020009A521C0092282AF5D300281CBFDC
:101D30000548FEF7DDF9206820F00800206038BD76
:101D400038040D400C240D40C05C150070B5254CC6
:101D50002348A060206820F400102060206820F450
:101D600080002060204D286820F01000286028683E
:101D700020F00300401C286000224FF496710420DC
:101D8000FFF752FF286820F0E06000F180702860C3
:101D9000286820F4E0002860206820F00F00801DF3
:101DA0002060286840F010002860206820F0F000D3
:101DB00040302060206840F4800020600020A06057
:101DC0000A49FF2008600A4908600A4908600A4970
:101DD000C8620A4908600A4908600A49086070BD7B
:101DE00090B413D500000D4000040D402C140D409C
:101DF0002C180D402C1C0D4000200D402C240D40B3
:101E00002C280D402C2C0D4070B50600234882B0C4
:101E10000D460BD0012E0ED0022E11D0204C032ED9
:101E200004BF016841F000410ED00EE01D4C016876
:101E300041F0805108E01C4C016841F0005103E082
:101E40001A4C016841F08041016000210220CDE977
:101E500000010B460A4603212046FFF738FF1448CD
:101E6000B0FBF5F12046FFF74BFF606940F0010041
:101E70006061606940F002006061606940F0C0002C
:101E80006061E06840F00100E060304600F04EF82C
:101E900002B03046BDE8704000F00CB800040D40C0
:101EA0000000054000000240000003400000044024
:101EB000180D8F004FF0E021602280B1012818D06A
:101EC000022820D0032818BF70474FF08060C1F867
:101ED0008002124B83F80024C1F8000170474FF4D0
:101EE0000000C1F880020E4B83F80024C1F8000105
:101EF00070474FF08070C1F880020A4B83F80024CD
:101F0000C1F8000170474FF00070C1F88002064B25
:101F100083F80024C1F80001704700001AE000E0D7
:101F200017E000E018E000E019E000E020B301282D
:101F30003FD0022859D0032818BF7047394801689C
:101F400021F4407101F580710160016841F4406144
:101F500001603548016821F010010160016841F01D
:101F6000200101603148016821F47F0101600168AE
:101F700041F4EE01016070472D48016821F4407181
:101F800001F580710160016841F4406101602948F8
:101F9000016821F010010160016841F02001016039
:101FA0002548016821F47F210160016841F48831EE
:101FB000E0E72248016821F030011031016001683A
:101FC00041F0C00101601E48016821F00401016078
:101FD000016841F0080101601A48016821F47F415D
:101FE0000160016841F4AA41C4E71748016821F083
:101FF000300110310160016841F0C00101601348F7
:10200000016821F004010160016841F008010160EC
:102010000F48016821F47F410160016841F4AA4141
:10202000A8E7000000200D4034040D4018040D40C6
:1020300000140D4028040D400C040D4000280D40F4
:102040003C040D4020040D4000240D4038040D4098
:102050001C040D4084200000000000202405000026
:1020600058090000A82500002405002030000000C9
:1020700058090000D82500005405002094040000F1
:1020800068090000000000000000000000000000DF
:102090000000000000000000000000000000000040
:1020A0000000000000000000000000000000000030
:1020B0000000000000000000000000000000000020
:1020C0000000000000000000000000000000000010
:1020D0000000000000000000000000000000000000
:1020E00000000000000000000000000000000000F0
:1020F00000000000000000000000000000000000E0
:1021000000000000000000000000000000000000CF
:1021100000000000000000000000000000000000BF
:1021200000000000000000000000000000000000AF
:10213000000000000000000000000000000000009F
:102140004FF0804050F8101F41F0805140F8981B2C
:1021500066490A68012393430A6863F300020A6030
:10216000816DC1F30B0262490A80C26DC2F30B029A
:102170004A80026EC2F30B028A80426EC2F30B02E7
:10218000CA80826EC2F30B020A81C26EC2F30B02D6
:102190004A81026FC2F30B028A81426FC2F30B02C3
:1021A000CA81826FC2F30B020A82C06FC0F30B00B8
:1021B000488270474FF0804151F8100F40F00050B6
:1021C00041F8A40B49480368012222EA030C036882
:1021D0006CF300030360036822EA0303026863F3FD
:1021E00000020260486FC0F30B02414882828A6F8E
:1021F000C2F30B02C282C96FC1F30B0101837047A6
:102200004FF0804050F8101F41F0804140F8C81B4B
:1022100036490B68012222EA030C0B686CF30003B9
:102220000B600B6822EA030C0B686CF300030B6075
:102230000B6822EA03030A6863F300020A60C16DB7
:10224000C1F30B022A494A83026EC2F30B028A834E
:10225000426EC2F30B02CA83826EC2F30B020A847F
:10226000C26EC2F30B024A84026FC2F30B028A846D
:10227000426FC2F30B02CA84826FC2F30B020A855B
:10228000C06FC0F30B00488570474FF0804108696C
:1022900040F00040086115480368012222EA030C5F
:1022A00003686CF300030360036822EA030C03680D
:1022B0006CF300030360036822EA030C03686CF309
:1022C00000030360036822EA0303026863F3000269
:1022D0000260D1F85801C0F30B0205488285D1F89D
:1022E0005C11C1F30B01C1857047000008240D404B
:1022F000540500201B4910B4C8681B4A1B4B00F052
:102300000F0C106083F800C04FF4FF6303EA501312
:10231000C0F342542343164C2380030E1548BCF1EE
:10232000010F037012D9CB68136043701C0A8470CC
:102330001C0C1B0EC4700371BCF1050F06D9CB68D1
:10234000136043711A0A82711A0CC2710A4A012081
:102350001070086820F07F4040F00060086010BCFA
:102360007047000000000A403805002035050020B5
:10237000360500202D0500203C0500200648016898
:1023800001228A43016862F3000101600348016889
:1023900041F080010160704708240D401C1C0D4075
:1023A0000949086810F0040F08BF70470748026821
:1023B0006FEA5203026863F341020260086840F06A
:1023C000040008607047000000000B4008240D4026
:1023D0000949086810F0040F08BF704707480268F1
:1023E0006FEA5203026863F341020260086840F03A
:1023F000040008607047000000000C4008240D40F5
:102400000548016811F0040F08BF7047016841F0EA
:102410000401016070470000000C0D403A4841681B
:1024200011F0010F10D0D0F804118AB237490A60B8
:10243000D0F8042192B24A60D0F80421120C8A60CC
:10244000416841F001014160416811F4807F08BF9B
:1024500070472F490A686FEA52030A6863F3410222
:102460000A60416841F480714160704729484168C1
:1024700011F0010F03D0416841F001014160416852
:1024800011F4807F08BF7047416841F4807141605A
:1024900070472148416811F0100F03D0416841F0A6
:1024A00010014160416811F4807F08BF70474168A6
:1024B00041F48071416070471849486810F0020F7C
:1024C00003D0486840F002004860486810F4807FFC
:1024D00008BF70470D484269521C4261B42A0DD3AF
:1024E0000022426190F818C00D4BBCF1000F08BFEC
:1024F00001220276186862F3C7101860486840F439
:10250000807048607047000000000640B806002058
:1025100008240D400000074000000840000009406A
:10252000081C0D401E48016911F4807F05D0016927
:1025300021F4F85101F580710161016911F4007F06
:1025400005D0016921F4F85101F5007101610169BB
:1025500011F4806F05D0016921F4F85101F5806113
:102560000161016911F4006F0DD00E490A686FEA2C
:1025700092030A6863F382020A60016921F4F85148
:1025800001F500610161016911F4805F08BF7047C6
:10259000016921F4F85101F5805101617047000093
:1025A0000000084008280D400024F400000000004E
:1025B000000000000000000000000000000000001B
:1025C000000000000000000000000000000000000B
:0825D000000000000000000003
:04000005000000BD3A
:00000001FF
